{
	"data": {
		"bytecode": {
			"linkReferences": {},
			"object": "6080604052348015600e575f5ffd5b50610ba78061001c5f395ff3fe608060405234801561000f575f5ffd5b506004361061003f575f3560e01c806304a87e38146100435780636723856214610061578063e1e295581461007d575b5f5ffd5b61004b610099565b60405161005891906104e8565b60405180910390f35b61007b60048036038101906100769190610645565b6101a7565b005b610097600480360381019061009291906106b6565b610281565b005b60605f805480602002602001604051908101604052809291908181526020015f905b8282101561019e578382905f5260205f2090600302016040518060600160405290815f82015481526020016001820180546100f59061070e565b80601f01602080910402602001604051908101604052809291908181526020018280546101219061070e565b801561016c5780601f106101435761010080835404028352916020019161016c565b820191905f5260205f20905b81548152906001019060200180831161014f57829003601f168201915b50505050508152602001600282015f9054906101000a900460ff161515151581525050815260200190600101906100bb565b50505050905090565b5f604051806060016040528060015481526020018381526020015f1515815250908060018154018082558091505060019003905f5260205f2090600302015f909190919091505f820151815f0155602082015181600101908161020a91906108de565b506040820151816002015f6101000a81548160ff02191690831515021790555050507f2ee7ce8bac091b03a0c391c07ee88a246bdd72bdc6b1ef1ce4d99220595d32c56001548260405161025f929190610a04565b60405180910390a160015f81548092919061027990610a5f565b919050555050565b5f8054905081106102c7576040517f08c379a00000000000000000000000000000000000000000000000000000000081526004016102be90610af0565b60405180910390fd5b60015f82815481106102dc576102db610b0e565b5b905f5260205f2090600302016002015f6101000a81548160ff0219169083151502179055507fe21fa966ca5cd02748c0752352d18c48165e61cb55b4c29cccf924b5a95fcff1816001604051610333929190610b4a565b60405180910390a150565b5f81519050919050565b5f82825260208201905092915050565b5f819050602082019050919050565b5f819050919050565b61037981610367565b82525050565b5f81519050919050565b5f82825260208201905092915050565b8281835e5f83830152505050565b5f601f19601f8301169050919050565b5f6103c18261037f565b6103cb8185610389565b93506103db818560208601610399565b6103e4816103a7565b840191505092915050565b5f8115159050919050565b610403816103ef565b82525050565b5f606083015f83015161041e5f860182610370565b506020830151848203602086015261043682826103b7565b915050604083015161044b60408601826103fa565b508091505092915050565b5f6104618383610409565b905092915050565b5f602082019050919050565b5f61047f8261033e565b6104898185610348565b93508360208202850161049b85610358565b805f5b858110156104d657848403895281516104b78582610456565b94506104c283610469565b925060208a0199505060018101905061049e565b50829750879550505050505092915050565b5f6020820190508181035f8301526105008184610475565b905092915050565b5f604051905090565b5f5ffd5b5f5ffd5b5f5ffd5b5f5ffd5b7f4e487b71000000000000000000000000000000000000000000000000000000005f52604160045260245ffd5b610557826103a7565b810181811067ffffffffffffffff8211171561057657610575610521565b5b80604052505050565b5f610588610508565b9050610594828261054e565b919050565b5f67ffffffffffffffff8211156105b3576105b2610521565b5b6105bc826103a7565b9050602081019050919050565b828183375f83830152505050565b5f6105e96105e484610599565b61057f565b9050828152602081018484840111156106055761060461051d565b5b6106108482856105c9565b509392505050565b5f82601f83011261062c5761062b610519565b5b813561063c8482602086016105d7565b91505092915050565b5f6020828403121561065a57610659610511565b5b5f82013567ffffffffffffffff81111561067757610676610515565b5b61068384828501610618565b91505092915050565b61069581610367565b811461069f575f5ffd5b50565b5f813590506106b08161068c565b92915050565b5f602082840312156106cb576106ca610511565b5b5f6106d8848285016106a2565b91505092915050565b7f4e487b71000000000000000000000000000000000000000000000000000000005f52602260045260245ffd5b5f600282049050600182168061072557607f821691505b602082108103610738576107376106e1565b5b50919050565b5f819050815f5260205f209050919050565b5f6020601f8301049050919050565b5f82821b905092915050565b5f6008830261079a7fffffffffffffffffffffffffffffffffffffffffffffffffffffffffffffffff8261075f565b6107a4868361075f565b95508019841693508086168417925050509392505050565b5f819050919050565b5f6107df6107da6107d584610367565b6107bc565b610367565b9050919050565b5f819050919050565b6107f8836107c5565b61080c610804826107e6565b84845461076b565b825550505050565b5f5f905090565b610823610814565b61082e8184846107ef565b505050565b5b81811015610851576108465f8261081b565b600181019050610834565b5050565b601f821115610896576108678161073e565b61087084610750565b8101602085101561087f578190505b61089361088b85610750565b830182610833565b50505b505050565b5f82821c905092915050565b5f6108b65f198460080261089b565b1980831691505092915050565b5f6108ce83836108a7565b9150826002028217905092915050565b6108e78261037f565b67ffffffffffffffff811115610900576108ff610521565b5b61090a825461070e565b610915828285610855565b5f60209050601f831160018114610946575f8415610934578287015190505b61093e85826108c3565b8655506109a5565b601f1984166109548661073e565b5f5b8281101561097b57848901518255600182019150602085019450602081019050610956565b868310156109985784890151610994601f8916826108a7565b8355505b6001600288020188555050505b505050505050565b6109b681610367565b82525050565b5f82825260208201905092915050565b5f6109d68261037f565b6109e081856109bc565b93506109f0818560208601610399565b6109f9816103a7565b840191505092915050565b5f604082019050610a175f8301856109ad565b8181036020830152610a2981846109cc565b90509392505050565b7f4e487b71000000000000000000000000000000000000000000000000000000005f52601160045260245ffd5b5f610a6982610367565b91507fffffffffffffffffffffffffffffffffffffffffffffffffffffffffffffffff8203610a9b57610a9a610a32565b5b600182019050919050565b7f5461736b20646f6573206e6f74206578697374000000000000000000000000005f82015250565b5f610ada6013836109bc565b9150610ae582610aa6565b602082019050919050565b5f6020820190508181035f830152610b0781610ace565b9050919050565b7f4e487b71000000000000000000000000000000000000000000000000000000005f52603260045260245ffd5b610b44816103ef565b82525050565b5f604082019050610b5d5f8301856109ad565b610b6a6020830184610b3b565b939250505056fea26469706673582212207572f56f9928ecd7aeb466cdabbbafee27c5fa908cbac99c47c252a2c7c5553464736f6c634300081e0033",
			"opcodes": "PUSH1 0x80 PUSH1 0x40 MSTORE CALLVALUE DUP1 ISZERO PUSH1 0xE JUMPI PUSH0 PUSH0 REVERT JUMPDEST POP PUSH2 0xBA7 DUP1 PUSH2 0x1C PUSH0 CODECOPY PUSH0 RETURN INVALID PUSH1 0x80 PUSH1 0x40 MSTORE CALLVALUE DUP1 ISZERO PUSH2 0xF JUMPI PUSH0 PUSH0 REVERT JUMPDEST POP PUSH1 0x4 CALLDATASIZE LT PUSH2 0x3F JUMPI PUSH0 CALLDATALOAD PUSH1 0xE0 SHR DUP1 PUSH4 0x4A87E38 EQ PUSH2 0x43 JUMPI DUP1 PUSH4 0x67238562 EQ PUSH2 0x61 JUMPI DUP1 PUSH4 0xE1E29558 EQ PUSH2 0x7D JUMPI JUMPDEST PUSH0 PUSH0 REVERT JUMPDEST PUSH2 0x4B PUSH2 0x99 JUMP JUMPDEST PUSH1 0x40 MLOAD PUSH2 0x58 SWAP2 SWAP1 PUSH2 0x4E8 JUMP JUMPDEST PUSH1 0x40 MLOAD DUP1 SWAP2 SUB SWAP1 RETURN JUMPDEST PUSH2 0x7B PUSH1 0x4 DUP1 CALLDATASIZE SUB DUP2 ADD SWAP1 PUSH2 0x76 SWAP2 SWAP1 PUSH2 0x645 JUMP JUMPDEST PUSH2 0x1A7 JUMP JUMPDEST STOP JUMPDEST PUSH2 0x97 PUSH1 0x4 DUP1 CALLDATASIZE SUB DUP2 ADD SWAP1 PUSH2 0x92 SWAP2 SWAP1 PUSH2 0x6B6 JUMP JUMPDEST PUSH2 0x281 JUMP JUMPDEST STOP JUMPDEST PUSH1 0x60 PUSH0 DUP1 SLOAD DUP1 PUSH1 0x20 MUL PUSH1 0x20 ADD PUSH1 0x40 MLOAD SWAP1 DUP2 ADD PUSH1 0x40 MSTORE DUP1 SWAP3 SWAP2 SWAP1 DUP2 DUP2 MSTORE PUSH1 0x20 ADD PUSH0 SWAP1 JUMPDEST DUP3 DUP3 LT ISZERO PUSH2 0x19E JUMPI DUP4 DUP3 SWAP1 PUSH0 MSTORE PUSH1 0x20 PUSH0 KECCAK256 SWAP1 PUSH1 0x3 MUL ADD PUSH1 0x40 MLOAD DUP1 PUSH1 0x60 ADD PUSH1 0x40 MSTORE SWAP1 DUP2 PUSH0 DUP3 ADD SLOAD DUP2 MSTORE PUSH1 0x20 ADD PUSH1 0x1 DUP3 ADD DUP1 SLOAD PUSH2 0xF5 SWAP1 PUSH2 0x70E JUMP JUMPDEST DUP1 PUSH1 0x1F ADD PUSH1 0x20 DUP1 SWAP2 DIV MUL PUSH1 0x20 ADD PUSH1 0x40 MLOAD SWAP1 DUP2 ADD PUSH1 0x40 MSTORE DUP1 SWAP3 SWAP2 SWAP1 DUP2 DUP2 MSTORE PUSH1 0x20 ADD DUP3 DUP1 SLOAD PUSH2 0x121 SWAP1 PUSH2 0x70E JUMP JUMPDEST DUP1 ISZERO PUSH2 0x16C JUMPI DUP1 PUSH1 0x1F LT PUSH2 0x143 JUMPI PUSH2 0x100 DUP1 DUP4 SLOAD DIV MUL DUP4 MSTORE SWAP2 PUSH1 0x20 ADD SWAP2 PUSH2 0x16C JUMP JUMPDEST DUP3 ADD SWAP2 SWAP1 PUSH0 MSTORE PUSH1 0x20 PUSH0 KECCAK256 SWAP1 JUMPDEST DUP2 SLOAD DUP2 MSTORE SWAP1 PUSH1 0x1 ADD SWAP1 PUSH1 0x20 ADD DUP1 DUP4 GT PUSH2 0x14F JUMPI DUP3 SWAP1 SUB PUSH1 0x1F AND DUP3 ADD SWAP2 JUMPDEST POP POP POP POP POP DUP2 MSTORE PUSH1 0x20 ADD PUSH1 0x2 DUP3 ADD PUSH0 SWAP1 SLOAD SWAP1 PUSH2 0x100 EXP SWAP1 DIV PUSH1 0xFF AND ISZERO ISZERO ISZERO ISZERO DUP2 MSTORE POP POP DUP2 MSTORE PUSH1 0x20 ADD SWAP1 PUSH1 0x1 ADD SWAP1 PUSH2 0xBB JUMP JUMPDEST POP POP POP POP SWAP1 POP SWAP1 JUMP JUMPDEST PUSH0 PUSH1 0x40 MLOAD DUP1 PUSH1 0x60 ADD PUSH1 0x40 MSTORE DUP1 PUSH1 0x1 SLOAD DUP2 MSTORE PUSH1 0x20 ADD DUP4 DUP2 MSTORE PUSH1 0x20 ADD PUSH0 ISZERO ISZERO DUP2 MSTORE POP SWAP1 DUP1 PUSH1 0x1 DUP2 SLOAD ADD DUP1 DUP3 SSTORE DUP1 SWAP2 POP POP PUSH1 0x1 SWAP1 SUB SWAP1 PUSH0 MSTORE PUSH1 0x20 PUSH0 KECCAK256 SWAP1 PUSH1 0x3 MUL ADD PUSH0 SWAP1 SWAP2 SWAP1 SWAP2 SWAP1 SWAP2 POP PUSH0 DUP3 ADD MLOAD DUP2 PUSH0 ADD SSTORE PUSH1 0x20 DUP3 ADD MLOAD DUP2 PUSH1 0x1 ADD SWAP1 DUP2 PUSH2 0x20A SWAP2 SWAP1 PUSH2 0x8DE JUMP JUMPDEST POP PUSH1 0x40 DUP3 ADD MLOAD DUP2 PUSH1 0x2 ADD PUSH0 PUSH2 0x100 EXP DUP2 SLOAD DUP2 PUSH1 0xFF MUL NOT AND SWAP1 DUP4 ISZERO ISZERO MUL OR SWAP1 SSTORE POP POP POP PUSH32 0x2EE7CE8BAC091B03A0C391C07EE88A246BDD72BDC6B1EF1CE4D99220595D32C5 PUSH1 0x1 SLOAD DUP3 PUSH1 0x40 MLOAD PUSH2 0x25F SWAP3 SWAP2 SWAP1 PUSH2 0xA04 JUMP JUMPDEST PUSH1 0x40 MLOAD DUP1 SWAP2 SUB SWAP1 LOG1 PUSH1 0x1 PUSH0 DUP2 SLOAD DUP1 SWAP3 SWAP2 SWAP1 PUSH2 0x279 SWAP1 PUSH2 0xA5F JUMP JUMPDEST SWAP2 SWAP1 POP SSTORE POP POP JUMP JUMPDEST PUSH0 DUP1 SLOAD SWAP1 POP DUP2 LT PUSH2 0x2C7 JUMPI PUSH1 0x40 MLOAD PUSH32 0x8C379A000000000000000000000000000000000000000000000000000000000 DUP2 MSTORE PUSH1 0x4 ADD PUSH2 0x2BE SWAP1 PUSH2 0xAF0 JUMP JUMPDEST PUSH1 0x40 MLOAD DUP1 SWAP2 SUB SWAP1 REVERT JUMPDEST PUSH1 0x1 PUSH0 DUP3 DUP2 SLOAD DUP2 LT PUSH2 0x2DC JUMPI PUSH2 0x2DB PUSH2 0xB0E JUMP JUMPDEST JUMPDEST SWAP1 PUSH0 MSTORE PUSH1 0x20 PUSH0 KECCAK256 SWAP1 PUSH1 0x3 MUL ADD PUSH1 0x2 ADD PUSH0 PUSH2 0x100 EXP DUP2 SLOAD DUP2 PUSH1 0xFF MUL NOT AND SWAP1 DUP4 ISZERO ISZERO MUL OR SWAP1 SSTORE POP PUSH32 0xE21FA966CA5CD02748C0752352D18C48165E61CB55B4C29CCCF924B5A95FCFF1 DUP2 PUSH1 0x1 PUSH1 0x40 MLOAD PUSH2 0x333 SWAP3 SWAP2 SWAP1 PUSH2 0xB4A JUMP JUMPDEST PUSH1 0x40 MLOAD DUP1 SWAP2 SUB SWAP1 LOG1 POP JUMP JUMPDEST PUSH0 DUP2 MLOAD SWAP1 POP SWAP2 SWAP1 POP JUMP JUMPDEST PUSH0 DUP3 DUP3 MSTORE PUSH1 0x20 DUP3 ADD SWAP1 POP SWAP3 SWAP2 POP POP JUMP JUMPDEST PUSH0 DUP2 SWAP1 POP PUSH1 0x20 DUP3 ADD SWAP1 POP SWAP2 SWAP1 POP JUMP JUMPDEST PUSH0 DUP2 SWAP1 POP SWAP2 SWAP1 POP JUMP JUMPDEST PUSH2 0x379 DUP2 PUSH2 0x367 JUMP JUMPDEST DUP3 MSTORE POP POP JUMP JUMPDEST PUSH0 DUP2 MLOAD SWAP1 POP SWAP2 SWAP1 POP JUMP JUMPDEST PUSH0 DUP3 DUP3 MSTORE PUSH1 0x20 DUP3 ADD SWAP1 POP SWAP3 SWAP2 POP POP JUMP JUMPDEST DUP3 DUP2 DUP4 MCOPY PUSH0 DUP4 DUP4 ADD MSTORE POP POP POP JUMP JUMPDEST PUSH0 PUSH1 0x1F NOT PUSH1 0x1F DUP4 ADD AND SWAP1 POP SWAP2 SWAP1 POP JUMP JUMPDEST PUSH0 PUSH2 0x3C1 DUP3 PUSH2 0x37F JUMP JUMPDEST PUSH2 0x3CB DUP2 DUP6 PUSH2 0x389 JUMP JUMPDEST SWAP4 POP PUSH2 0x3DB DUP2 DUP6 PUSH1 0x20 DUP7 ADD PUSH2 0x399 JUMP JUMPDEST PUSH2 0x3E4 DUP2 PUSH2 0x3A7 JUMP JUMPDEST DUP5 ADD SWAP2 POP POP SWAP3 SWAP2 POP POP JUMP JUMPDEST PUSH0 DUP2 ISZERO ISZERO SWAP1 POP SWAP2 SWAP1 POP JUMP JUMPDEST PUSH2 0x403 DUP2 PUSH2 0x3EF JUMP JUMPDEST DUP3 MSTORE POP POP JUMP JUMPDEST PUSH0 PUSH1 0x60 DUP4 ADD PUSH0 DUP4 ADD MLOAD PUSH2 0x41E PUSH0 DUP7 ADD DUP3 PUSH2 0x370 JUMP JUMPDEST POP PUSH1 0x20 DUP4 ADD MLOAD DUP5 DUP3 SUB PUSH1 0x20 DUP7 ADD MSTORE PUSH2 0x436 DUP3 DUP3 PUSH2 0x3B7 JUMP JUMPDEST SWAP2 POP POP PUSH1 0x40 DUP4 ADD MLOAD PUSH2 0x44B PUSH1 0x40 DUP7 ADD DUP3 PUSH2 0x3FA JUMP JUMPDEST POP DUP1 SWAP2 POP POP SWAP3 SWAP2 POP POP JUMP JUMPDEST PUSH0 PUSH2 0x461 DUP4 DUP4 PUSH2 0x409 JUMP JUMPDEST SWAP1 POP SWAP3 SWAP2 POP POP JUMP JUMPDEST PUSH0 PUSH1 0x20 DUP3 ADD SWAP1 POP SWAP2 SWAP1 POP JUMP JUMPDEST PUSH0 PUSH2 0x47F DUP3 PUSH2 0x33E JUMP JUMPDEST PUSH2 0x489 DUP2 DUP6 PUSH2 0x348 JUMP JUMPDEST SWAP4 POP DUP4 PUSH1 0x20 DUP3 MUL DUP6 ADD PUSH2 0x49B DUP6 PUSH2 0x358 JUMP JUMPDEST DUP1 PUSH0 JUMPDEST DUP6 DUP2 LT ISZERO PUSH2 0x4D6 JUMPI DUP5 DUP5 SUB DUP10 MSTORE DUP2 MLOAD PUSH2 0x4B7 DUP6 DUP3 PUSH2 0x456 JUMP JUMPDEST SWAP5 POP PUSH2 0x4C2 DUP4 PUSH2 0x469 JUMP JUMPDEST SWAP3 POP PUSH1 0x20 DUP11 ADD SWAP10 POP POP PUSH1 0x1 DUP2 ADD SWAP1 POP PUSH2 0x49E JUMP JUMPDEST POP DUP3 SWAP8 POP DUP8 SWAP6 POP POP POP POP POP POP SWAP3 SWAP2 POP POP JUMP JUMPDEST PUSH0 PUSH1 0x20 DUP3 ADD SWAP1 POP DUP2 DUP2 SUB PUSH0 DUP4 ADD MSTORE PUSH2 0x500 DUP2 DUP5 PUSH2 0x475 JUMP JUMPDEST SWAP1 POP SWAP3 SWAP2 POP POP JUMP JUMPDEST PUSH0 PUSH1 0x40 MLOAD SWAP1 POP SWAP1 JUMP JUMPDEST PUSH0 PUSH0 REVERT JUMPDEST PUSH0 PUSH0 REVERT JUMPDEST PUSH0 PUSH0 REVERT JUMPDEST PUSH0 PUSH0 REVERT JUMPDEST PUSH32 0x4E487B7100000000000000000000000000000000000000000000000000000000 PUSH0 MSTORE PUSH1 0x41 PUSH1 0x4 MSTORE PUSH1 0x24 PUSH0 REVERT JUMPDEST PUSH2 0x557 DUP3 PUSH2 0x3A7 JUMP JUMPDEST DUP2 ADD DUP2 DUP2 LT PUSH8 0xFFFFFFFFFFFFFFFF DUP3 GT OR ISZERO PUSH2 0x576 JUMPI PUSH2 0x575 PUSH2 0x521 JUMP JUMPDEST JUMPDEST DUP1 PUSH1 0x40 MSTORE POP POP POP JUMP JUMPDEST PUSH0 PUSH2 0x588 PUSH2 0x508 JUMP JUMPDEST SWAP1 POP PUSH2 0x594 DUP3 DUP3 PUSH2 0x54E JUMP JUMPDEST SWAP2 SWAP1 POP JUMP JUMPDEST PUSH0 PUSH8 0xFFFFFFFFFFFFFFFF DUP3 GT ISZERO PUSH2 0x5B3 JUMPI PUSH2 0x5B2 PUSH2 0x521 JUMP JUMPDEST JUMPDEST PUSH2 0x5BC DUP3 PUSH2 0x3A7 JUMP JUMPDEST SWAP1 POP PUSH1 0x20 DUP2 ADD SWAP1 POP SWAP2 SWAP1 POP JUMP JUMPDEST DUP3 DUP2 DUP4 CALLDATACOPY PUSH0 DUP4 DUP4 ADD MSTORE POP POP POP JUMP JUMPDEST PUSH0 PUSH2 0x5E9 PUSH2 0x5E4 DUP5 PUSH2 0x599 JUMP JUMPDEST PUSH2 0x57F JUMP JUMPDEST SWAP1 POP DUP3 DUP2 MSTORE PUSH1 0x20 DUP2 ADD DUP5 DUP5 DUP5 ADD GT ISZERO PUSH2 0x605 JUMPI PUSH2 0x604 PUSH2 0x51D JUMP JUMPDEST JUMPDEST PUSH2 0x610 DUP5 DUP3 DUP6 PUSH2 0x5C9 JUMP JUMPDEST POP SWAP4 SWAP3 POP POP POP JUMP JUMPDEST PUSH0 DUP3 PUSH1 0x1F DUP4 ADD SLT PUSH2 0x62C JUMPI PUSH2 0x62B PUSH2 0x519 JUMP JUMPDEST JUMPDEST DUP2 CALLDATALOAD PUSH2 0x63C DUP5 DUP3 PUSH1 0x20 DUP7 ADD PUSH2 0x5D7 JUMP JUMPDEST SWAP2 POP POP SWAP3 SWAP2 POP POP JUMP JUMPDEST PUSH0 PUSH1 0x20 DUP3 DUP5 SUB SLT ISZERO PUSH2 0x65A JUMPI PUSH2 0x659 PUSH2 0x511 JUMP JUMPDEST JUMPDEST PUSH0 DUP3 ADD CALLDATALOAD PUSH8 0xFFFFFFFFFFFFFFFF DUP2 GT ISZERO PUSH2 0x677 JUMPI PUSH2 0x676 PUSH2 0x515 JUMP JUMPDEST JUMPDEST PUSH2 0x683 DUP5 DUP3 DUP6 ADD PUSH2 0x618 JUMP JUMPDEST SWAP2 POP POP SWAP3 SWAP2 POP POP JUMP JUMPDEST PUSH2 0x695 DUP2 PUSH2 0x367 JUMP JUMPDEST DUP2 EQ PUSH2 0x69F JUMPI PUSH0 PUSH0 REVERT JUMPDEST POP JUMP JUMPDEST PUSH0 DUP2 CALLDATALOAD SWAP1 POP PUSH2 0x6B0 DUP2 PUSH2 0x68C JUMP JUMPDEST SWAP3 SWAP2 POP POP JUMP JUMPDEST PUSH0 PUSH1 0x20 DUP3 DUP5 SUB SLT ISZERO PUSH2 0x6CB JUMPI PUSH2 0x6CA PUSH2 0x511 JUMP JUMPDEST JUMPDEST PUSH0 PUSH2 0x6D8 DUP5 DUP3 DUP6 ADD PUSH2 0x6A2 JUMP JUMPDEST SWAP2 POP POP SWAP3 SWAP2 POP POP JUMP JUMPDEST PUSH32 0x4E487B7100000000000000000000000000000000000000000000000000000000 PUSH0 MSTORE PUSH1 0x22 PUSH1 0x4 MSTORE PUSH1 0x24 PUSH0 REVERT JUMPDEST PUSH0 PUSH1 0x2 DUP3 DIV SWAP1 POP PUSH1 0x1 DUP3 AND DUP1 PUSH2 0x725 JUMPI PUSH1 0x7F DUP3 AND SWAP2 POP JUMPDEST PUSH1 0x20 DUP3 LT DUP2 SUB PUSH2 0x738 JUMPI PUSH2 0x737 PUSH2 0x6E1 JUMP JUMPDEST JUMPDEST POP SWAP2 SWAP1 POP JUMP JUMPDEST PUSH0 DUP2 SWAP1 POP DUP2 PUSH0 MSTORE PUSH1 0x20 PUSH0 KECCAK256 SWAP1 POP SWAP2 SWAP1 POP JUMP JUMPDEST PUSH0 PUSH1 0x20 PUSH1 0x1F DUP4 ADD DIV SWAP1 POP SWAP2 SWAP1 POP JUMP JUMPDEST PUSH0 DUP3 DUP3 SHL SWAP1 POP SWAP3 SWAP2 POP POP JUMP JUMPDEST PUSH0 PUSH1 0x8 DUP4 MUL PUSH2 0x79A PUSH32 0xFFFFFFFFFFFFFFFFFFFFFFFFFFFFFFFFFFFFFFFFFFFFFFFFFFFFFFFFFFFFFFFF DUP3 PUSH2 0x75F JUMP JUMPDEST PUSH2 0x7A4 DUP7 DUP4 PUSH2 0x75F JUMP JUMPDEST SWAP6 POP DUP1 NOT DUP5 AND SWAP4 POP DUP1 DUP7 AND DUP5 OR SWAP3 POP POP POP SWAP4 SWAP3 POP POP POP JUMP JUMPDEST PUSH0 DUP2 SWAP1 POP SWAP2 SWAP1 POP JUMP JUMPDEST PUSH0 PUSH2 0x7DF PUSH2 0x7DA PUSH2 0x7D5 DUP5 PUSH2 0x367 JUMP JUMPDEST PUSH2 0x7BC JUMP JUMPDEST PUSH2 0x367 JUMP JUMPDEST SWAP1 POP SWAP2 SWAP1 POP JUMP JUMPDEST PUSH0 DUP2 SWAP1 POP SWAP2 SWAP1 POP JUMP JUMPDEST PUSH2 0x7F8 DUP4 PUSH2 0x7C5 JUMP JUMPDEST PUSH2 0x80C PUSH2 0x804 DUP3 PUSH2 0x7E6 JUMP JUMPDEST DUP5 DUP5 SLOAD PUSH2 0x76B JUMP JUMPDEST DUP3 SSTORE POP POP POP POP JUMP JUMPDEST PUSH0 PUSH0 SWAP1 POP SWAP1 JUMP JUMPDEST PUSH2 0x823 PUSH2 0x814 JUMP JUMPDEST PUSH2 0x82E DUP2 DUP5 DUP5 PUSH2 0x7EF JUMP JUMPDEST POP POP POP JUMP JUMPDEST JUMPDEST DUP2 DUP2 LT ISZERO PUSH2 0x851 JUMPI PUSH2 0x846 PUSH0 DUP3 PUSH2 0x81B JUMP JUMPDEST PUSH1 0x1 DUP2 ADD SWAP1 POP PUSH2 0x834 JUMP JUMPDEST POP POP JUMP JUMPDEST PUSH1 0x1F DUP3 GT ISZERO PUSH2 0x896 JUMPI PUSH2 0x867 DUP2 PUSH2 0x73E JUMP JUMPDEST PUSH2 0x870 DUP5 PUSH2 0x750 JUMP JUMPDEST DUP2 ADD PUSH1 0x20 DUP6 LT ISZERO PUSH2 0x87F JUMPI DUP2 SWAP1 POP JUMPDEST PUSH2 0x893 PUSH2 0x88B DUP6 PUSH2 0x750 JUMP JUMPDEST DUP4 ADD DUP3 PUSH2 0x833 JUMP JUMPDEST POP POP JUMPDEST POP POP POP JUMP JUMPDEST PUSH0 DUP3 DUP3 SHR SWAP1 POP SWAP3 SWAP2 POP POP JUMP JUMPDEST PUSH0 PUSH2 0x8B6 PUSH0 NOT DUP5 PUSH1 0x8 MUL PUSH2 0x89B JUMP JUMPDEST NOT DUP1 DUP4 AND SWAP2 POP POP SWAP3 SWAP2 POP POP JUMP JUMPDEST PUSH0 PUSH2 0x8CE DUP4 DUP4 PUSH2 0x8A7 JUMP JUMPDEST SWAP2 POP DUP3 PUSH1 0x2 MUL DUP3 OR SWAP1 POP SWAP3 SWAP2 POP POP JUMP JUMPDEST PUSH2 0x8E7 DUP3 PUSH2 0x37F JUMP JUMPDEST PUSH8 0xFFFFFFFFFFFFFFFF DUP2 GT ISZERO PUSH2 0x900 JUMPI PUSH2 0x8FF PUSH2 0x521 JUMP JUMPDEST JUMPDEST PUSH2 0x90A DUP3 SLOAD PUSH2 0x70E JUMP JUMPDEST PUSH2 0x915 DUP3 DUP3 DUP6 PUSH2 0x855 JUMP JUMPDEST PUSH0 PUSH1 0x20 SWAP1 POP PUSH1 0x1F DUP4 GT PUSH1 0x1 DUP2 EQ PUSH2 0x946 JUMPI PUSH0 DUP5 ISZERO PUSH2 0x934 JUMPI DUP3 DUP8 ADD MLOAD SWAP1 POP JUMPDEST PUSH2 0x93E DUP6 DUP3 PUSH2 0x8C3 JUMP JUMPDEST DUP7 SSTORE POP PUSH2 0x9A5 JUMP JUMPDEST PUSH1 0x1F NOT DUP5 AND PUSH2 0x954 DUP7 PUSH2 0x73E JUMP JUMPDEST PUSH0 JUMPDEST DUP3 DUP2 LT ISZERO PUSH2 0x97B JUMPI DUP5 DUP10 ADD MLOAD DUP3 SSTORE PUSH1 0x1 DUP3 ADD SWAP2 POP PUSH1 0x20 DUP6 ADD SWAP5 POP PUSH1 0x20 DUP2 ADD SWAP1 POP PUSH2 0x956 JUMP JUMPDEST DUP7 DUP4 LT ISZERO PUSH2 0x998 JUMPI DUP5 DUP10 ADD MLOAD PUSH2 0x994 PUSH1 0x1F DUP10 AND DUP3 PUSH2 0x8A7 JUMP JUMPDEST DUP4 SSTORE POP JUMPDEST PUSH1 0x1 PUSH1 0x2 DUP9 MUL ADD DUP9 SSTORE POP POP POP JUMPDEST POP POP POP POP POP POP JUMP JUMPDEST PUSH2 0x9B6 DUP2 PUSH2 0x367 JUMP JUMPDEST DUP3 MSTORE POP POP JUMP JUMPDEST PUSH0 DUP3 DUP3 MSTORE PUSH1 0x20 DUP3 ADD SWAP1 POP SWAP3 SWAP2 POP POP JUMP JUMPDEST PUSH0 PUSH2 0x9D6 DUP3 PUSH2 0x37F JUMP JUMPDEST PUSH2 0x9E0 DUP2 DUP6 PUSH2 0x9BC JUMP JUMPDEST SWAP4 POP PUSH2 0x9F0 DUP2 DUP6 PUSH1 0x20 DUP7 ADD PUSH2 0x399 JUMP JUMPDEST PUSH2 0x9F9 DUP2 PUSH2 0x3A7 JUMP JUMPDEST DUP5 ADD SWAP2 POP POP SWAP3 SWAP2 POP POP JUMP JUMPDEST PUSH0 PUSH1 0x40 DUP3 ADD SWAP1 POP PUSH2 0xA17 PUSH0 DUP4 ADD DUP6 PUSH2 0x9AD JUMP JUMPDEST DUP2 DUP2 SUB PUSH1 0x20 DUP4 ADD MSTORE PUSH2 0xA29 DUP2 DUP5 PUSH2 0x9CC JUMP JUMPDEST SWAP1 POP SWAP4 SWAP3 POP POP POP JUMP JUMPDEST PUSH32 0x4E487B7100000000000000000000000000000000000000000000000000000000 PUSH0 MSTORE PUSH1 0x11 PUSH1 0x4 MSTORE PUSH1 0x24 PUSH0 REVERT JUMPDEST PUSH0 PUSH2 0xA69 DUP3 PUSH2 0x367 JUMP JUMPDEST SWAP2 POP PUSH32 0xFFFFFFFFFFFFFFFFFFFFFFFFFFFFFFFFFFFFFFFFFFFFFFFFFFFFFFFFFFFFFFFF DUP3 SUB PUSH2 0xA9B JUMPI PUSH2 0xA9A PUSH2 0xA32 JUMP JUMPDEST JUMPDEST PUSH1 0x1 DUP3 ADD SWAP1 POP SWAP2 SWAP1 POP JUMP JUMPDEST PUSH32 0x5461736B20646F6573206E6F7420657869737400000000000000000000000000 PUSH0 DUP3 ADD MSTORE POP JUMP JUMPDEST PUSH0 PUSH2 0xADA PUSH1 0x13 DUP4 PUSH2 0x9BC JUMP JUMPDEST SWAP2 POP PUSH2 0xAE5 DUP3 PUSH2 0xAA6 JUMP JUMPDEST PUSH1 0x20 DUP3 ADD SWAP1 POP SWAP2 SWAP1 POP JUMP JUMPDEST PUSH0 PUSH1 0x20 DUP3 ADD SWAP1 POP DUP2 DUP2 SUB PUSH0 DUP4 ADD MSTORE PUSH2 0xB07 DUP2 PUSH2 0xACE JUMP JUMPDEST SWAP1 POP SWAP2 SWAP1 POP JUMP JUMPDEST PUSH32 0x4E487B7100000000000000000000000000000000000000000000000000000000 PUSH0 MSTORE PUSH1 0x32 PUSH1 0x4 MSTORE PUSH1 0x24 PUSH0 REVERT JUMPDEST PUSH2 0xB44 DUP2 PUSH2 0x3EF JUMP JUMPDEST DUP3 MSTORE POP POP JUMP JUMPDEST PUSH0 PUSH1 0x40 DUP3 ADD SWAP1 POP PUSH2 0xB5D PUSH0 DUP4 ADD DUP6 PUSH2 0x9AD JUMP JUMPDEST PUSH2 0xB6A PUSH1 0x20 DUP4 ADD DUP5 PUSH2 0xB3B JUMP JUMPDEST SWAP4 SWAP3 POP POP POP JUMP INVALID LOG2 PUSH5 0x6970667358 0x22 SLT KECCAK256 PUSH22 0x72F56F9928ECD7AEB466CDABBBAFEE27C5FA908CBAC9 SWAP13 SELFBALANCE 0xC2 MSTORE LOG2 0xC7 0xC5 SSTORE CALLVALUE PUSH5 0x736F6C6343 STOP ADDMOD 0x1E STOP CALLER "
		},
		"gasEstimates": {
			"creation": {
				"codeDepositCost": "596600",
				"executionCost": "630",
				"totalCost": "597230"
			},
			"external": {
				"addTask(string)": "infinite",
				"completeTask(uint256)": "infinite",
				"getTasks()": "infinite"
			}
		},
		"methodIdentifiers": {
			"addTask(string)": "67238562",
			"completeTask(uint256)": "e1e29558",
			"getTasks()": "04a87e38"
		}
	},
	"abi": [
		{
			"anonymous": false,
			"inputs": [
				{
					"indexed": false,
					"internalType": "uint256",
					"name": "id",
					"type": "uint256"
				},
				{
					"indexed": false,
					"internalType": "string",
					"name": "content",
					"type": "string"
				}
			],
			"name": "TaskAdded",
			"type": "event"
		},
		{
			"anonymous": false,
			"inputs": [
				{
					"indexed": false,
					"internalType": "uint256",
					"name": "id",
					"type": "uint256"
				},
				{
					"indexed": false,
					"internalType": "bool",
					"name": "completed",
					"type": "bool"
				}
			],
			"name": "TaskCompleted",
			"type": "event"
		},
		{
			"inputs": [
				{
					"internalType": "string",
					"name": "_content",
					"type": "string"
				}
			],
			"name": "addTask",
			"outputs": [],
			"stateMutability": "nonpayable",
			"type": "function"
		},
		{
			"inputs": [
				{
					"internalType": "uint256",
					"name": "_id",
					"type": "uint256"
				}
			],
			"name": "completeTask",
			"outputs": [],
			"stateMutability": "nonpayable",
			"type": "function"
		},
		{
			"inputs": [],
			"name": "getTasks",
			"outputs": [
				{
					"components": [
						{
							"internalType": "uint256",
							"name": "id",
							"type": "uint256"
						},
						{
							"internalType": "string",
							"name": "content",
							"type": "string"
						},
						{
							"internalType": "bool",
							"name": "completed",
							"type": "bool"
						}
					],
					"internalType": "struct TodoList.Task[]",
					"name": "",
					"type": "tuple[]"
				}
			],
			"stateMutability": "view",
			"type": "function"
		}
	]
}