{
	"data": {
		"bytecode": {
			"linkReferences": {},
			"object": "6080604052348015600e575f5ffd5b50610d2e8061001c5f395ff3fe608060405234801561000f575f5ffd5b506004361061003f575f3560e01c806304a87e38146100435780636723856214610061578063e1e295581461007d575b5f5ffd5b61004b610099565b604051610058919061059f565b60405180910390f35b61007b600480360381019061007691906106fc565b6101a7565b005b6100976004803603810190610092919061076d565b6102c4565b005b60605f805480602002602001604051908101604052809291908181526020015f905b8282101561019e578382905f5260205f2090600302016040518060600160405290815f82015481526020016001820180546100f5906107c5565b80601f0160208091040260200160405190810160405280929190818152602001828054610121906107c5565b801561016c5780601f106101435761010080835404028352916020019161016c565b820191905f5260205f20905b81548152906001019060200180831161014f57829003601f168201915b50505050508152602001600282015f9054906101000a900460ff161515151581525050815260200190600101906100bb565b50505050905090565b5f8151116101ea576040517f08c379a00000000000000000000000000000000000000000000000000000000081526004016101e19061084f565b60405180910390fd5b5f604051806060016040528060015481526020018381526020015f1515815250908060018154018082558091505060019003905f5260205f2090600302015f909190919091505f820151815f0155602082015181600101908161024d9190610a0d565b506040820151816002015f6101000a81548160ff02191690831515021790555050507f2ee7ce8bac091b03a0c391c07ee88a246bdd72bdc6b1ef1ce4d99220595d32c5600154826040516102a2929190610b23565b60405180910390a160015f8154809291906102bc90610b7e565b919050555050565b5f80549050811061030a576040517f08c379a000000000000000000000000000000000000000000000000000000000815260040161030190610c0f565b60405180910390fd5b5f15155f82815481106103205761031f610c2d565b5b905f5260205f2090600302016002015f9054906101000a900460ff1615151461037e576040517f08c379a000000000000000000000000000000000000000000000000000000000815260040161037590610ca4565b60405180910390fd5b60015f828154811061039357610392610c2d565b5b905f5260205f2090600302016002015f6101000a81548160ff0219169083151502179055507fe21fa966ca5cd02748c0752352d18c48165e61cb55b4c29cccf924b5a95fcff18160016040516103ea929190610cd1565b60405180910390a150565b5f81519050919050565b5f82825260208201905092915050565b5f819050602082019050919050565b5f819050919050565b6104308161041e565b82525050565b5f81519050919050565b5f82825260208201905092915050565b8281835e5f83830152505050565b5f601f19601f8301169050919050565b5f61047882610436565b6104828185610440565b9350610492818560208601610450565b61049b8161045e565b840191505092915050565b5f8115159050919050565b6104ba816104a6565b82525050565b5f606083015f8301516104d55f860182610427565b50602083015184820360208601526104ed828261046e565b915050604083015161050260408601826104b1565b508091505092915050565b5f61051883836104c0565b905092915050565b5f602082019050919050565b5f610536826103f5565b61054081856103ff565b9350836020820285016105528561040f565b805f5b8581101561058d578484038952815161056e858261050d565b945061057983610520565b925060208a01995050600181019050610555565b50829750879550505050505092915050565b5f6020820190508181035f8301526105b7818461052c565b905092915050565b5f604051905090565b5f5ffd5b5f5ffd5b5f5ffd5b5f5ffd5b7f4e487b71000000000000000000000000000000000000000000000000000000005f52604160045260245ffd5b61060e8261045e565b810181811067ffffffffffffffff8211171561062d5761062c6105d8565b5b80604052505050565b5f61063f6105bf565b905061064b8282610605565b919050565b5f67ffffffffffffffff82111561066a576106696105d8565b5b6106738261045e565b9050602081019050919050565b828183375f83830152505050565b5f6106a061069b84610650565b610636565b9050828152602081018484840111156106bc576106bb6105d4565b5b6106c7848285610680565b509392505050565b5f82601f8301126106e3576106e26105d0565b5b81356106f384826020860161068e565b91505092915050565b5f60208284031215610711576107106105c8565b5b5f82013567ffffffffffffffff81111561072e5761072d6105cc565b5b61073a848285016106cf565b91505092915050565b61074c8161041e565b8114610756575f5ffd5b50565b5f8135905061076781610743565b92915050565b5f60208284031215610782576107816105c8565b5b5f61078f84828501610759565b91505092915050565b7f4e487b71000000000000000000000000000000000000000000000000000000005f52602260045260245ffd5b5f60028204905060018216806107dc57607f821691505b6020821081036107ef576107ee610798565b5b50919050565b5f82825260208201905092915050565b7f5461736b20636f6e74656e742063616e6e6f7420626520656d707479000000005f82015250565b5f610839601c836107f5565b915061084482610805565b602082019050919050565b5f6020820190508181035f8301526108668161082d565b9050919050565b5f819050815f5260205f209050919050565b5f6020601f8301049050919050565b5f82821b905092915050565b5f600883026108c97fffffffffffffffffffffffffffffffffffffffffffffffffffffffffffffffff8261088e565b6108d3868361088e565b95508019841693508086168417925050509392505050565b5f819050919050565b5f61090e6109096109048461041e565b6108eb565b61041e565b9050919050565b5f819050919050565b610927836108f4565b61093b61093382610915565b84845461089a565b825550505050565b5f5f905090565b610952610943565b61095d81848461091e565b505050565b5b81811015610980576109755f8261094a565b600181019050610963565b5050565b601f8211156109c5576109968161086d565b61099f8461087f565b810160208510156109ae578190505b6109c26109ba8561087f565b830182610962565b50505b505050565b5f82821c905092915050565b5f6109e55f19846008026109ca565b1980831691505092915050565b5f6109fd83836109d6565b9150826002028217905092915050565b610a1682610436565b67ffffffffffffffff811115610a2f57610a2e6105d8565b5b610a3982546107c5565b610a44828285610984565b5f60209050601f831160018114610a75575f8415610a63578287015190505b610a6d85826109f2565b865550610ad4565b601f198416610a838661086d565b5f5b82811015610aaa57848901518255600182019150602085019450602081019050610a85565b86831015610ac75784890151610ac3601f8916826109d6565b8355505b6001600288020188555050505b505050505050565b610ae58161041e565b82525050565b5f610af582610436565b610aff81856107f5565b9350610b0f818560208601610450565b610b188161045e565b840191505092915050565b5f604082019050610b365f830185610adc565b8181036020830152610b488184610aeb565b90509392505050565b7f4e487b71000000000000000000000000000000000000000000000000000000005f52601160045260245ffd5b5f610b888261041e565b91507fffffffffffffffffffffffffffffffffffffffffffffffffffffffffffffffff8203610bba57610bb9610b51565b5b600182019050919050565b7f5461736b20646f6573206e6f74206578697374000000000000000000000000005f82015250565b5f610bf96013836107f5565b9150610c0482610bc5565b602082019050919050565b5f6020820190508181035f830152610c2681610bed565b9050919050565b7f4e487b71000000000000000000000000000000000000000000000000000000005f52603260045260245ffd5b7f5461736b20616c726561647920636f6d706c65746564000000000000000000005f82015250565b5f610c8e6016836107f5565b9150610c9982610c5a565b602082019050919050565b5f6020820190508181035f830152610cbb81610c82565b9050919050565b610ccb816104a6565b82525050565b5f604082019050610ce45f830185610adc565b610cf16020830184610cc2565b939250505056fea2646970667358221220241099c7a81d39c6726959be808d1b8de78fbe64dbf9151a5754f6f85ab2fc7464736f6c634300081f0033",
			"opcodes": "PUSH1 0x80 PUSH1 0x40 MSTORE CALLVALUE DUP1 ISZERO PUSH1 0xE JUMPI PUSH0 PUSH0 REVERT JUMPDEST POP PUSH2 0xD2E DUP1 PUSH2 0x1C PUSH0 CODECOPY PUSH0 RETURN INVALID PUSH1 0x80 PUSH1 0x40 MSTORE CALLVALUE DUP1 ISZERO PUSH2 0xF JUMPI PUSH0 PUSH0 REVERT JUMPDEST POP PUSH1 0x4 CALLDATASIZE LT PUSH2 0x3F JUMPI PUSH0 CALLDATALOAD PUSH1 0xE0 SHR DUP1 PUSH4 0x4A87E38 EQ PUSH2 0x43 JUMPI DUP1 PUSH4 0x67238562 EQ PUSH2 0x61 JUMPI DUP1 PUSH4 0xE1E29558 EQ PUSH2 0x7D JUMPI JUMPDEST PUSH0 PUSH0 REVERT JUMPDEST PUSH2 0x4B PUSH2 0x99 JUMP JUMPDEST PUSH1 0x40 MLOAD PUSH2 0x58 SWAP2 SWAP1 PUSH2 0x59F JUMP JUMPDEST PUSH1 0x40 MLOAD DUP1 SWAP2 SUB SWAP1 RETURN JUMPDEST PUSH2 0x7B PUSH1 0x4 DUP1 CALLDATASIZE SUB DUP2 ADD SWAP1 PUSH2 0x76 SWAP2 SWAP1 PUSH2 0x6FC JUMP JUMPDEST PUSH2 0x1A7 JUMP JUMPDEST STOP JUMPDEST PUSH2 0x97 PUSH1 0x4 DUP1 CALLDATASIZE SUB DUP2 ADD SWAP1 PUSH2 0x92 SWAP2 SWAP1 PUSH2 0x76D JUMP JUMPDEST PUSH2 0x2C4 JUMP JUMPDEST STOP JUMPDEST PUSH1 0x60 PUSH0 DUP1 SLOAD DUP1 PUSH1 0x20 MUL PUSH1 0x20 ADD PUSH1 0x40 MLOAD SWAP1 DUP2 ADD PUSH1 0x40 MSTORE DUP1 SWAP3 SWAP2 SWAP1 DUP2 DUP2 MSTORE PUSH1 0x20 ADD PUSH0 SWAP1 JUMPDEST DUP3 DUP3 LT ISZERO PUSH2 0x19E JUMPI DUP4 DUP3 SWAP1 PUSH0 MSTORE PUSH1 0x20 PUSH0 KECCAK256 SWAP1 PUSH1 0x3 MUL ADD PUSH1 0x40 MLOAD DUP1 PUSH1 0x60 ADD PUSH1 0x40 MSTORE SWAP1 DUP2 PUSH0 DUP3 ADD SLOAD DUP2 MSTORE PUSH1 0x20 ADD PUSH1 0x1 DUP3 ADD DUP1 SLOAD PUSH2 0xF5 SWAP1 PUSH2 0x7C5 JUMP JUMPDEST DUP1 PUSH1 0x1F ADD PUSH1 0x20 DUP1 SWAP2 DIV MUL PUSH1 0x20 ADD PUSH1 0x40 MLOAD SWAP1 DUP2 ADD PUSH1 0x40 MSTORE DUP1 SWAP3 SWAP2 SWAP1 DUP2 DUP2 MSTORE PUSH1 0x20 ADD DUP3 DUP1 SLOAD PUSH2 0x121 SWAP1 PUSH2 0x7C5 JUMP JUMPDEST DUP1 ISZERO PUSH2 0x16C JUMPI DUP1 PUSH1 0x1F LT PUSH2 0x143 JUMPI PUSH2 0x100 DUP1 DUP4 SLOAD DIV MUL DUP4 MSTORE SWAP2 PUSH1 0x20 ADD SWAP2 PUSH2 0x16C JUMP JUMPDEST DUP3 ADD SWAP2 SWAP1 PUSH0 MSTORE PUSH1 0x20 PUSH0 KECCAK256 SWAP1 JUMPDEST DUP2 SLOAD DUP2 MSTORE SWAP1 PUSH1 0x1 ADD SWAP1 PUSH1 0x20 ADD DUP1 DUP4 GT PUSH2 0x14F JUMPI DUP3 SWAP1 SUB PUSH1 0x1F AND DUP3 ADD SWAP2 JUMPDEST POP POP POP POP POP DUP2 MSTORE PUSH1 0x20 ADD PUSH1 0x2 DUP3 ADD PUSH0 SWAP1 SLOAD SWAP1 PUSH2 0x100 EXP SWAP1 DIV PUSH1 0xFF AND ISZERO ISZERO ISZERO ISZERO DUP2 MSTORE POP POP DUP2 MSTORE PUSH1 0x20 ADD SWAP1 PUSH1 0x1 ADD SWAP1 PUSH2 0xBB JUMP JUMPDEST POP POP POP POP SWAP1 POP SWAP1 JUMP JUMPDEST PUSH0 DUP2 MLOAD GT PUSH2 0x1EA JUMPI PUSH1 0x40 MLOAD PUSH32 0x8C379A000000000000000000000000000000000000000000000000000000000 DUP2 MSTORE PUSH1 0x4 ADD PUSH2 0x1E1 SWAP1 PUSH2 0x84F JUMP JUMPDEST PUSH1 0x40 MLOAD DUP1 SWAP2 SUB SWAP1 REVERT JUMPDEST PUSH0 PUSH1 0x40 MLOAD DUP1 PUSH1 0x60 ADD PUSH1 0x40 MSTORE DUP1 PUSH1 0x1 SLOAD DUP2 MSTORE PUSH1 0x20 ADD DUP4 DUP2 MSTORE PUSH1 0x20 ADD PUSH0 ISZERO ISZERO DUP2 MSTORE POP SWAP1 DUP1 PUSH1 0x1 DUP2 SLOAD ADD DUP1 DUP3 SSTORE DUP1 SWAP2 POP POP PUSH1 0x1 SWAP1 SUB SWAP1 PUSH0 MSTORE PUSH1 0x20 PUSH0 KECCAK256 SWAP1 PUSH1 0x3 MUL ADD PUSH0 SWAP1 SWAP2 SWAP1 SWAP2 SWAP1 SWAP2 POP PUSH0 DUP3 ADD MLOAD DUP2 PUSH0 ADD SSTORE PUSH1 0x20 DUP3 ADD MLOAD DUP2 PUSH1 0x1 ADD SWAP1 DUP2 PUSH2 0x24D SWAP2 SWAP1 PUSH2 0xA0D JUMP JUMPDEST POP PUSH1 0x40 DUP3 ADD MLOAD DUP2 PUSH1 0x2 ADD PUSH0 PUSH2 0x100 EXP DUP2 SLOAD DUP2 PUSH1 0xFF MUL NOT AND SWAP1 DUP4 ISZERO ISZERO MUL OR SWAP1 SSTORE POP POP POP PUSH32 0x2EE7CE8BAC091B03A0C391C07EE88A246BDD72BDC6B1EF1CE4D99220595D32C5 PUSH1 0x1 SLOAD DUP3 PUSH1 0x40 MLOAD PUSH2 0x2A2 SWAP3 SWAP2 SWAP1 PUSH2 0xB23 JUMP JUMPDEST PUSH1 0x40 MLOAD DUP1 SWAP2 SUB SWAP1 LOG1 PUSH1 0x1 PUSH0 DUP2 SLOAD DUP1 SWAP3 SWAP2 SWAP1 PUSH2 0x2BC SWAP1 PUSH2 0xB7E JUMP JUMPDEST SWAP2 SWAP1 POP SSTORE POP POP JUMP JUMPDEST PUSH0 DUP1 SLOAD SWAP1 POP DUP2 LT PUSH2 0x30A JUMPI PUSH1 0x40 MLOAD PUSH32 0x8C379A000000000000000000000000000000000000000000000000000000000 DUP2 MSTORE PUSH1 0x4 ADD PUSH2 0x301 SWAP1 PUSH2 0xC0F JUMP JUMPDEST PUSH1 0x40 MLOAD DUP1 SWAP2 SUB SWAP1 REVERT JUMPDEST PUSH0 ISZERO ISZERO PUSH0 DUP3 DUP2 SLOAD DUP2 LT PUSH2 0x320 JUMPI PUSH2 0x31F PUSH2 0xC2D JUMP JUMPDEST JUMPDEST SWAP1 PUSH0 MSTORE PUSH1 0x20 PUSH0 KECCAK256 SWAP1 PUSH1 0x3 MUL ADD PUSH1 0x2 ADD PUSH0 SWAP1 SLOAD SWAP1 PUSH2 0x100 EXP SWAP1 DIV PUSH1 0xFF AND ISZERO ISZERO EQ PUSH2 0x37E JUMPI PUSH1 0x40 MLOAD PUSH32 0x8C379A000000000000000000000000000000000000000000000000000000000 DUP2 MSTORE PUSH1 0x4 ADD PUSH2 0x375 SWAP1 PUSH2 0xCA4 JUMP JUMPDEST PUSH1 0x40 MLOAD DUP1 SWAP2 SUB SWAP1 REVERT JUMPDEST PUSH1 0x1 PUSH0 DUP3 DUP2 SLOAD DUP2 LT PUSH2 0x393 JUMPI PUSH2 0x392 PUSH2 0xC2D JUMP JUMPDEST JUMPDEST SWAP1 PUSH0 MSTORE PUSH1 0x20 PUSH0 KECCAK256 SWAP1 PUSH1 0x3 MUL ADD PUSH1 0x2 ADD PUSH0 PUSH2 0x100 EXP DUP2 SLOAD DUP2 PUSH1 0xFF MUL NOT AND SWAP1 DUP4 ISZERO ISZERO MUL OR SWAP1 SSTORE POP PUSH32 0xE21FA966CA5CD02748C0752352D18C48165E61CB55B4C29CCCF924B5A95FCFF1 DUP2 PUSH1 0x1 PUSH1 0x40 MLOAD PUSH2 0x3EA SWAP3 SWAP2 SWAP1 PUSH2 0xCD1 JUMP JUMPDEST PUSH1 0x40 MLOAD DUP1 SWAP2 SUB SWAP1 LOG1 POP JUMP JUMPDEST PUSH0 DUP2 MLOAD SWAP1 POP SWAP2 SWAP1 POP JUMP JUMPDEST PUSH0 DUP3 DUP3 MSTORE PUSH1 0x20 DUP3 ADD SWAP1 POP SWAP3 SWAP2 POP POP JUMP JUMPDEST PUSH0 DUP2 SWAP1 POP PUSH1 0x20 DUP3 ADD SWAP1 POP SWAP2 SWAP1 POP JUMP JUMPDEST PUSH0 DUP2 SWAP1 POP SWAP2 SWAP1 POP JUMP JUMPDEST PUSH2 0x430 DUP2 PUSH2 0x41E JUMP JUMPDEST DUP3 MSTORE POP POP JUMP JUMPDEST PUSH0 DUP2 MLOAD SWAP1 POP SWAP2 SWAP1 POP JUMP JUMPDEST PUSH0 DUP3 DUP3 MSTORE PUSH1 0x20 DUP3 ADD SWAP1 POP SWAP3 SWAP2 POP POP JUMP JUMPDEST DUP3 DUP2 DUP4 MCOPY PUSH0 DUP4 DUP4 ADD MSTORE POP POP POP JUMP JUMPDEST PUSH0 PUSH1 0x1F NOT PUSH1 0x1F DUP4 ADD AND SWAP1 POP SWAP2 SWAP1 POP JUMP JUMPDEST PUSH0 PUSH2 0x478 DUP3 PUSH2 0x436 JUMP JUMPDEST PUSH2 0x482 DUP2 DUP6 PUSH2 0x440 JUMP JUMPDEST SWAP4 POP PUSH2 0x492 DUP2 DUP6 PUSH1 0x20 DUP7 ADD PUSH2 0x450 JUMP JUMPDEST PUSH2 0x49B DUP2 PUSH2 0x45E JUMP JUMPDEST DUP5 ADD SWAP2 POP POP SWAP3 SWAP2 POP POP JUMP JUMPDEST PUSH0 DUP2 ISZERO ISZERO SWAP1 POP SWAP2 SWAP1 POP JUMP JUMPDEST PUSH2 0x4BA DUP2 PUSH2 0x4A6 JUMP JUMPDEST DUP3 MSTORE POP POP JUMP JUMPDEST PUSH0 PUSH1 0x60 DUP4 ADD PUSH0 DUP4 ADD MLOAD PUSH2 0x4D5 PUSH0 DUP7 ADD DUP3 PUSH2 0x427 JUMP JUMPDEST POP PUSH1 0x20 DUP4 ADD MLOAD DUP5 DUP3 SUB PUSH1 0x20 DUP7 ADD MSTORE PUSH2 0x4ED DUP3 DUP3 PUSH2 0x46E JUMP JUMPDEST SWAP2 POP POP PUSH1 0x40 DUP4 ADD MLOAD PUSH2 0x502 PUSH1 0x40 DUP7 ADD DUP3 PUSH2 0x4B1 JUMP JUMPDEST POP DUP1 SWAP2 POP POP SWAP3 SWAP2 POP POP JUMP JUMPDEST PUSH0 PUSH2 0x518 DUP4 DUP4 PUSH2 0x4C0 JUMP JUMPDEST SWAP1 POP SWAP3 SWAP2 POP POP JUMP JUMPDEST PUSH0 PUSH1 0x20 DUP3 ADD SWAP1 POP SWAP2 SWAP1 POP JUMP JUMPDEST PUSH0 PUSH2 0x536 DUP3 PUSH2 0x3F5 JUMP JUMPDEST PUSH2 0x540 DUP2 DUP6 PUSH2 0x3FF JUMP JUMPDEST SWAP4 POP DUP4 PUSH1 0x20 DUP3 MUL DUP6 ADD PUSH2 0x552 DUP6 PUSH2 0x40F JUMP JUMPDEST DUP1 PUSH0 JUMPDEST DUP6 DUP2 LT ISZERO PUSH2 0x58D JUMPI DUP5 DUP5 SUB DUP10 MSTORE DUP2 MLOAD PUSH2 0x56E DUP6 DUP3 PUSH2 0x50D JUMP JUMPDEST SWAP5 POP PUSH2 0x579 DUP4 PUSH2 0x520 JUMP JUMPDEST SWAP3 POP PUSH1 0x20 DUP11 ADD SWAP10 POP POP PUSH1 0x1 DUP2 ADD SWAP1 POP PUSH2 0x555 JUMP JUMPDEST POP DUP3 SWAP8 POP DUP8 SWAP6 POP POP POP POP POP POP SWAP3 SWAP2 POP POP JUMP JUMPDEST PUSH0 PUSH1 0x20 DUP3 ADD SWAP1 POP DUP2 DUP2 SUB PUSH0 DUP4 ADD MSTORE PUSH2 0x5B7 DUP2 DUP5 PUSH2 0x52C JUMP JUMPDEST SWAP1 POP SWAP3 SWAP2 POP POP JUMP JUMPDEST PUSH0 PUSH1 0x40 MLOAD SWAP1 POP SWAP1 JUMP JUMPDEST PUSH0 PUSH0 REVERT JUMPDEST PUSH0 PUSH0 REVERT JUMPDEST PUSH0 PUSH0 REVERT JUMPDEST PUSH0 PUSH0 REVERT JUMPDEST PUSH32 0x4E487B7100000000000000000000000000000000000000000000000000000000 PUSH0 MSTORE PUSH1 0x41 PUSH1 0x4 MSTORE PUSH1 0x24 PUSH0 REVERT JUMPDEST PUSH2 0x60E DUP3 PUSH2 0x45E JUMP JUMPDEST DUP2 ADD DUP2 DUP2 LT PUSH8 0xFFFFFFFFFFFFFFFF DUP3 GT OR ISZERO PUSH2 0x62D JUMPI PUSH2 0x62C PUSH2 0x5D8 JUMP JUMPDEST JUMPDEST DUP1 PUSH1 0x40 MSTORE POP POP POP JUMP JUMPDEST PUSH0 PUSH2 0x63F PUSH2 0x5BF JUMP JUMPDEST SWAP1 POP PUSH2 0x64B DUP3 DUP3 PUSH2 0x605 JUMP JUMPDEST SWAP2 SWAP1 POP JUMP JUMPDEST PUSH0 PUSH8 0xFFFFFFFFFFFFFFFF DUP3 GT ISZERO PUSH2 0x66A JUMPI PUSH2 0x669 PUSH2 0x5D8 JUMP JUMPDEST JUMPDEST PUSH2 0x673 DUP3 PUSH2 0x45E JUMP JUMPDEST SWAP1 POP PUSH1 0x20 DUP2 ADD SWAP1 POP SWAP2 SWAP1 POP JUMP JUMPDEST DUP3 DUP2 DUP4 CALLDATACOPY PUSH0 DUP4 DUP4 ADD MSTORE POP POP POP JUMP JUMPDEST PUSH0 PUSH2 0x6A0 PUSH2 0x69B DUP5 PUSH2 0x650 JUMP JUMPDEST PUSH2 0x636 JUMP JUMPDEST SWAP1 POP DUP3 DUP2 MSTORE PUSH1 0x20 DUP2 ADD DUP5 DUP5 DUP5 ADD GT ISZERO PUSH2 0x6BC JUMPI PUSH2 0x6BB PUSH2 0x5D4 JUMP JUMPDEST JUMPDEST PUSH2 0x6C7 DUP5 DUP3 DUP6 PUSH2 0x680 JUMP JUMPDEST POP SWAP4 SWAP3 POP POP POP JUMP JUMPDEST PUSH0 DUP3 PUSH1 0x1F DUP4 ADD SLT PUSH2 0x6E3 JUMPI PUSH2 0x6E2 PUSH2 0x5D0 JUMP JUMPDEST JUMPDEST DUP2 CALLDATALOAD PUSH2 0x6F3 DUP5 DUP3 PUSH1 0x20 DUP7 ADD PUSH2 0x68E JUMP JUMPDEST SWAP2 POP POP SWAP3 SWAP2 POP POP JUMP JUMPDEST PUSH0 PUSH1 0x20 DUP3 DUP5 SUB SLT ISZERO PUSH2 0x711 JUMPI PUSH2 0x710 PUSH2 0x5C8 JUMP JUMPDEST JUMPDEST PUSH0 DUP3 ADD CALLDATALOAD PUSH8 0xFFFFFFFFFFFFFFFF DUP2 GT ISZERO PUSH2 0x72E JUMPI PUSH2 0x72D PUSH2 0x5CC JUMP JUMPDEST JUMPDEST PUSH2 0x73A DUP5 DUP3 DUP6 ADD PUSH2 0x6CF JUMP JUMPDEST SWAP2 POP POP SWAP3 SWAP2 POP POP JUMP JUMPDEST PUSH2 0x74C DUP2 PUSH2 0x41E JUMP JUMPDEST DUP2 EQ PUSH2 0x756 JUMPI PUSH0 PUSH0 REVERT JUMPDEST POP JUMP JUMPDEST PUSH0 DUP2 CALLDATALOAD SWAP1 POP PUSH2 0x767 DUP2 PUSH2 0x743 JUMP JUMPDEST SWAP3 SWAP2 POP POP JUMP JUMPDEST PUSH0 PUSH1 0x20 DUP3 DUP5 SUB SLT ISZERO PUSH2 0x782 JUMPI PUSH2 0x781 PUSH2 0x5C8 JUMP JUMPDEST JUMPDEST PUSH0 PUSH2 0x78F DUP5 DUP3 DUP6 ADD PUSH2 0x759 JUMP JUMPDEST SWAP2 POP POP SWAP3 SWAP2 POP POP JUMP JUMPDEST PUSH32 0x4E487B7100000000000000000000000000000000000000000000000000000000 PUSH0 MSTORE PUSH1 0x22 PUSH1 0x4 MSTORE PUSH1 0x24 PUSH0 REVERT JUMPDEST PUSH0 PUSH1 0x2 DUP3 DIV SWAP1 POP PUSH1 0x1 DUP3 AND DUP1 PUSH2 0x7DC JUMPI PUSH1 0x7F DUP3 AND SWAP2 POP JUMPDEST PUSH1 0x20 DUP3 LT DUP2 SUB PUSH2 0x7EF JUMPI PUSH2 0x7EE PUSH2 0x798 JUMP JUMPDEST JUMPDEST POP SWAP2 SWAP1 POP JUMP JUMPDEST PUSH0 DUP3 DUP3 MSTORE PUSH1 0x20 DUP3 ADD SWAP1 POP SWAP3 SWAP2 POP POP JUMP JUMPDEST PUSH32 0x5461736B20636F6E74656E742063616E6E6F7420626520656D70747900000000 PUSH0 DUP3 ADD MSTORE POP JUMP JUMPDEST PUSH0 PUSH2 0x839 PUSH1 0x1C DUP4 PUSH2 0x7F5 JUMP JUMPDEST SWAP2 POP PUSH2 0x844 DUP3 PUSH2 0x805 JUMP JUMPDEST PUSH1 0x20 DUP3 ADD SWAP1 POP SWAP2 SWAP1 POP JUMP JUMPDEST PUSH0 PUSH1 0x20 DUP3 ADD SWAP1 POP DUP2 DUP2 SUB PUSH0 DUP4 ADD MSTORE PUSH2 0x866 DUP2 PUSH2 0x82D JUMP JUMPDEST SWAP1 POP SWAP2 SWAP1 POP JUMP JUMPDEST PUSH0 DUP2 SWAP1 POP DUP2 PUSH0 MSTORE PUSH1 0x20 PUSH0 KECCAK256 SWAP1 POP SWAP2 SWAP1 POP JUMP JUMPDEST PUSH0 PUSH1 0x20 PUSH1 0x1F DUP4 ADD DIV SWAP1 POP SWAP2 SWAP1 POP JUMP JUMPDEST PUSH0 DUP3 DUP3 SHL SWAP1 POP SWAP3 SWAP2 POP POP JUMP JUMPDEST PUSH0 PUSH1 0x8 DUP4 MUL PUSH2 0x8C9 PUSH32 0xFFFFFFFFFFFFFFFFFFFFFFFFFFFFFFFFFFFFFFFFFFFFFFFFFFFFFFFFFFFFFFFF DUP3 PUSH2 0x88E JUMP JUMPDEST PUSH2 0x8D3 DUP7 DUP4 PUSH2 0x88E JUMP JUMPDEST SWAP6 POP DUP1 NOT DUP5 AND SWAP4 POP DUP1 DUP7 AND DUP5 OR SWAP3 POP POP POP SWAP4 SWAP3 POP POP POP JUMP JUMPDEST PUSH0 DUP2 SWAP1 POP SWAP2 SWAP1 POP JUMP JUMPDEST PUSH0 PUSH2 0x90E PUSH2 0x909 PUSH2 0x904 DUP5 PUSH2 0x41E JUMP JUMPDEST PUSH2 0x8EB JUMP JUMPDEST PUSH2 0x41E JUMP JUMPDEST SWAP1 POP SWAP2 SWAP1 POP JUMP JUMPDEST PUSH0 DUP2 SWAP1 POP SWAP2 SWAP1 POP JUMP JUMPDEST PUSH2 0x927 DUP4 PUSH2 0x8F4 JUMP JUMPDEST PUSH2 0x93B PUSH2 0x933 DUP3 PUSH2 0x915 JUMP JUMPDEST DUP5 DUP5 SLOAD PUSH2 0x89A JUMP JUMPDEST DUP3 SSTORE POP POP POP POP JUMP JUMPDEST PUSH0 PUSH0 SWAP1 POP SWAP1 JUMP JUMPDEST PUSH2 0x952 PUSH2 0x943 JUMP JUMPDEST PUSH2 0x95D DUP2 DUP5 DUP5 PUSH2 0x91E JUMP JUMPDEST POP POP POP JUMP JUMPDEST JUMPDEST DUP2 DUP2 LT ISZERO PUSH2 0x980 JUMPI PUSH2 0x975 PUSH0 DUP3 PUSH2 0x94A JUMP JUMPDEST PUSH1 0x1 DUP2 ADD SWAP1 POP PUSH2 0x963 JUMP JUMPDEST POP POP JUMP JUMPDEST PUSH1 0x1F DUP3 GT ISZERO PUSH2 0x9C5 JUMPI PUSH2 0x996 DUP2 PUSH2 0x86D JUMP JUMPDEST PUSH2 0x99F DUP5 PUSH2 0x87F JUMP JUMPDEST DUP2 ADD PUSH1 0x20 DUP6 LT ISZERO PUSH2 0x9AE JUMPI DUP2 SWAP1 POP JUMPDEST PUSH2 0x9C2 PUSH2 0x9BA DUP6 PUSH2 0x87F JUMP JUMPDEST DUP4 ADD DUP3 PUSH2 0x962 JUMP JUMPDEST POP POP JUMPDEST POP POP POP JUMP JUMPDEST PUSH0 DUP3 DUP3 SHR SWAP1 POP SWAP3 SWAP2 POP POP JUMP JUMPDEST PUSH0 PUSH2 0x9E5 PUSH0 NOT DUP5 PUSH1 0x8 MUL PUSH2 0x9CA JUMP JUMPDEST NOT DUP1 DUP4 AND SWAP2 POP POP SWAP3 SWAP2 POP POP JUMP JUMPDEST PUSH0 PUSH2 0x9FD DUP4 DUP4 PUSH2 0x9D6 JUMP JUMPDEST SWAP2 POP DUP3 PUSH1 0x2 MUL DUP3 OR SWAP1 POP SWAP3 SWAP2 POP POP JUMP JUMPDEST PUSH2 0xA16 DUP3 PUSH2 0x436 JUMP JUMPDEST PUSH8 0xFFFFFFFFFFFFFFFF DUP2 GT ISZERO PUSH2 0xA2F JUMPI PUSH2 0xA2E PUSH2 0x5D8 JUMP JUMPDEST JUMPDEST PUSH2 0xA39 DUP3 SLOAD PUSH2 0x7C5 JUMP JUMPDEST PUSH2 0xA44 DUP3 DUP3 DUP6 PUSH2 0x984 JUMP JUMPDEST PUSH0 PUSH1 0x20 SWAP1 POP PUSH1 0x1F DUP4 GT PUSH1 0x1 DUP2 EQ PUSH2 0xA75 JUMPI PUSH0 DUP5 ISZERO PUSH2 0xA63 JUMPI DUP3 DUP8 ADD MLOAD SWAP1 POP JUMPDEST PUSH2 0xA6D DUP6 DUP3 PUSH2 0x9F2 JUMP JUMPDEST DUP7 SSTORE POP PUSH2 0xAD4 JUMP JUMPDEST PUSH1 0x1F NOT DUP5 AND PUSH2 0xA83 DUP7 PUSH2 0x86D JUMP JUMPDEST PUSH0 JUMPDEST DUP3 DUP2 LT ISZERO PUSH2 0xAAA JUMPI DUP5 DUP10 ADD MLOAD DUP3 SSTORE PUSH1 0x1 DUP3 ADD SWAP2 POP PUSH1 0x20 DUP6 ADD SWAP5 POP PUSH1 0x20 DUP2 ADD SWAP1 POP PUSH2 0xA85 JUMP JUMPDEST DUP7 DUP4 LT ISZERO PUSH2 0xAC7 JUMPI DUP5 DUP10 ADD MLOAD PUSH2 0xAC3 PUSH1 0x1F DUP10 AND DUP3 PUSH2 0x9D6 JUMP JUMPDEST DUP4 SSTORE POP JUMPDEST PUSH1 0x1 PUSH1 0x2 DUP9 MUL ADD DUP9 SSTORE POP POP POP JUMPDEST POP POP POP POP POP POP JUMP JUMPDEST PUSH2 0xAE5 DUP2 PUSH2 0x41E JUMP JUMPDEST DUP3 MSTORE POP POP JUMP JUMPDEST PUSH0 PUSH2 0xAF5 DUP3 PUSH2 0x436 JUMP JUMPDEST PUSH2 0xAFF DUP2 DUP6 PUSH2 0x7F5 JUMP JUMPDEST SWAP4 POP PUSH2 0xB0F DUP2 DUP6 PUSH1 0x20 DUP7 ADD PUSH2 0x450 JUMP JUMPDEST PUSH2 0xB18 DUP2 PUSH2 0x45E JUMP JUMPDEST DUP5 ADD SWAP2 POP POP SWAP3 SWAP2 POP POP JUMP JUMPDEST PUSH0 PUSH1 0x40 DUP3 ADD SWAP1 POP PUSH2 0xB36 PUSH0 DUP4 ADD DUP6 PUSH2 0xADC JUMP JUMPDEST DUP2 DUP2 SUB PUSH1 0x20 DUP4 ADD MSTORE PUSH2 0xB48 DUP2 DUP5 PUSH2 0xAEB JUMP JUMPDEST SWAP1 POP SWAP4 SWAP3 POP POP POP JUMP JUMPDEST PUSH32 0x4E487B7100000000000000000000000000000000000000000000000000000000 PUSH0 MSTORE PUSH1 0x11 PUSH1 0x4 MSTORE PUSH1 0x24 PUSH0 REVERT JUMPDEST PUSH0 PUSH2 0xB88 DUP3 PUSH2 0x41E JUMP JUMPDEST SWAP2 POP PUSH32 0xFFFFFFFFFFFFFFFFFFFFFFFFFFFFFFFFFFFFFFFFFFFFFFFFFFFFFFFFFFFFFFFF DUP3 SUB PUSH2 0xBBA JUMPI PUSH2 0xBB9 PUSH2 0xB51 JUMP JUMPDEST JUMPDEST PUSH1 0x1 DUP3 ADD SWAP1 POP SWAP2 SWAP1 POP JUMP JUMPDEST PUSH32 0x5461736B20646F6573206E6F7420657869737400000000000000000000000000 PUSH0 DUP3 ADD MSTORE POP JUMP JUMPDEST PUSH0 PUSH2 0xBF9 PUSH1 0x13 DUP4 PUSH2 0x7F5 JUMP JUMPDEST SWAP2 POP PUSH2 0xC04 DUP3 PUSH2 0xBC5 JUMP JUMPDEST PUSH1 0x20 DUP3 ADD SWAP1 POP SWAP2 SWAP1 POP JUMP JUMPDEST PUSH0 PUSH1 0x20 DUP3 ADD SWAP1 POP DUP2 DUP2 SUB PUSH0 DUP4 ADD MSTORE PUSH2 0xC26 DUP2 PUSH2 0xBED JUMP JUMPDEST SWAP1 POP SWAP2 SWAP1 POP JUMP JUMPDEST PUSH32 0x4E487B7100000000000000000000000000000000000000000000000000000000 PUSH0 MSTORE PUSH1 0x32 PUSH1 0x4 MSTORE PUSH1 0x24 PUSH0 REVERT JUMPDEST PUSH32 0x5461736B20616C726561647920636F6D706C6574656400000000000000000000 PUSH0 DUP3 ADD MSTORE POP JUMP JUMPDEST PUSH0 PUSH2 0xC8E PUSH1 0x16 DUP4 PUSH2 0x7F5 JUMP JUMPDEST SWAP2 POP PUSH2 0xC99 DUP3 PUSH2 0xC5A JUMP JUMPDEST PUSH1 0x20 DUP3 ADD SWAP1 POP SWAP2 SWAP1 POP JUMP JUMPDEST PUSH0 PUSH1 0x20 DUP3 ADD SWAP1 POP DUP2 DUP2 SUB PUSH0 DUP4 ADD MSTORE PUSH2 0xCBB DUP2 PUSH2 0xC82 JUMP JUMPDEST SWAP1 POP SWAP2 SWAP1 POP JUMP JUMPDEST PUSH2 0xCCB DUP2 PUSH2 0x4A6 JUMP JUMPDEST DUP3 MSTORE POP POP JUMP JUMPDEST PUSH0 PUSH1 0x40 DUP3 ADD SWAP1 POP PUSH2 0xCE4 PUSH0 DUP4 ADD DUP6 PUSH2 0xADC JUMP JUMPDEST PUSH2 0xCF1 PUSH1 0x20 DUP4 ADD DUP5 PUSH2 0xCC2 JUMP JUMPDEST SWAP4 SWAP3 POP POP POP JUMP INVALID LOG2 PUSH5 0x6970667358 0x22 SLT KECCAK256 0x24 LT SWAP10 0xC7 0xA8 SAR CODECOPY 0xC6 PUSH19 0x6959BE808D1B8DE78FBE64DBF9151A5754F6F8 GAS 0xB2 0xFC PUSH21 0x64736F6C634300081F003300000000000000000000 "
		},
		"gasEstimates": {
			"creation": {
				"codeDepositCost": "674800",
				"executionCost": "706",
				"totalCost": "675506"
			},
			"external": {
				"addTask(string)": "infinite",
				"completeTask(uint256)": "infinite",
				"getTasks()": "infinite"
			}
		},
		"methodIdentifiers": {
			"addTask(string)": "67238562",
			"completeTask(uint256)": "e1e29558",
			"getTasks()": "04a87e38"
		}
	},
	"abi": [
		{
			"anonymous": false,
			"inputs": [
				{
					"indexed": false,
					"internalType": "uint256",
					"name": "id",
					"type": "uint256"
				},
				{
					"indexed": false,
					"internalType": "string",
					"name": "content",
					"type": "string"
				}
			],
			"name": "TaskAdded",
			"type": "event"
		},
		{
			"anonymous": false,
			"inputs": [
				{
					"indexed": false,
					"internalType": "uint256",
					"name": "id",
					"type": "uint256"
				},
				{
					"indexed": false,
					"internalType": "bool",
					"name": "completed",
					"type": "bool"
				}
			],
			"name": "TaskCompleted",
			"type": "event"
		},
		{
			"inputs": [
				{
					"internalType": "string",
					"name": "_content",
					"type": "string"
				}
			],
			"name": "addTask",
			"outputs": [],
			"stateMutability": "nonpayable",
			"type": "function"
		},
		{
			"inputs": [
				{
					"internalType": "uint256",
					"name": "_id",
					"type": "uint256"
				}
			],
			"name": "completeTask",
			"outputs": [],
			"stateMutability": "nonpayable",
			"type": "function"
		},
		{
			"inputs": [],
			"name": "getTasks",
			"outputs": [
				{
					"components": [
						{
							"internalType": "uint256",
							"name": "id",
							"type": "uint256"
						},
						{
							"internalType": "string",
							"name": "content",
							"type": "string"
						},
						{
							"internalType": "bool",
							"name": "completed",
							"type": "bool"
						}
					],
					"internalType": "struct TodoListBasicTest.Task[]",
					"name": "",
					"type": "tuple[]"
				}
			],
			"stateMutability": "view",
			"type": "function"
		}
	]
}